{
	"data": {
		"bytecode": {
			"linkReferences": {},
			"object": "6080604052348015600e575f80fd5b506118328061001c5f395ff3fe608060405234801561000f575f80fd5b5060043610610060575f3560e01c8063079eaf34146100645780630b1e7f831461008057806322e8c87d146100b257806341f3004a146100d0578063a6322819146100ee578063a87430ba1461010a575b5f80fd5b61007e60048036038101906100799190610c96565b61013c565b005b61009a60048036038101906100959190610d3f565b610458565b6040516100a993929190610dd9565b60405180910390f35b6100ba610599565b6040516100c79190610ee3565b60405180910390f35b6100d86106a0565b6040516100e59190611021565b60405180910390f35b61010860048036038101906101039190611041565b610825565b005b610124600480360381019061011f91906110e2565b610a6e565b6040516101339392919061112b565b60405180910390f35b815f5b600180549050811015610224578160405160200161015d91906111a1565b604051602081830303815290604052805190602001205f803373ffffffffffffffffffffffffffffffffffffffff1673ffffffffffffffffffffffffffffffffffffffff1681526020019081526020015f205f016040516020016101c191906112a6565b6040516020818303038152906040528051906020012003610217576040517f08c379a000000000000000000000000000000000000000000000000000000000815260040161020e90611306565b60405180910390fd5b808060010191505061013f565b505f805f3373ffffffffffffffffffffffffffffffffffffffff1673ffffffffffffffffffffffffffffffffffffffff1681526020019081526020015f205f01805461026f906111e4565b9050146102b1576040517f08c379a00000000000000000000000000000000000000000000000000000000081526004016102a89061136e565b60405180910390fd5b5f6040516020016102c1906113d6565b60405160208183030381529060405280519060200120846040516020016102e891906111a1565b604051602081830303815290604052805190602001201480610353575060405160200161031490611434565b604051602081830303815290604052805190602001208460405160200161033b91906111a1565b60405160208183030381529060405280519060200120145b90505f8360405160200161036791906111a1565b60405160208183030381529060405280519060200120905060405180606001604052808681526020018281526020018315158152505f803373ffffffffffffffffffffffffffffffffffffffff1673ffffffffffffffffffffffffffffffffffffffff1681526020019081526020015f205f820151815f0190816103eb91906115d3565b50602082015181600101556040820151816002015f6101000a81548160ff0219169083151502179055509050507f1ff0e184db000e0421dfb00aa59d3ca0043bfd62b6ca0f114291a1727d293df585836040516104499291906116a2565b60405180910390a15050505050565b60018181548110610467575f80fd5b905f5260205f2090600302015f91509050805f018054610486906111e4565b80601f01602080910402602001604051908101604052809291908181526020018280546104b2906111e4565b80156104fd5780601f106104d4576101008083540402835291602001916104fd565b820191905f5260205f20905b8154815290600101906020018083116104e057829003601f168201915b505050505090806001018054610512906111e4565b80601f016020809104026020016040519081016040528092919081815260200182805461053e906111e4565b80156105895780601f1061056057610100808354040283529160200191610589565b820191905f5260205f20905b81548152906001019060200180831161056c57829003601f168201915b5050505050908060020154905083565b6105a1610b25565b5f803373ffffffffffffffffffffffffffffffffffffffff1673ffffffffffffffffffffffffffffffffffffffff1681526020019081526020015f206040518060600160405290815f820180546105f7906111e4565b80601f0160208091040260200160405190810160405280929190818152602001828054610623906111e4565b801561066e5780601f106106455761010080835404028352916020019161066e565b820191905f5260205f20905b81548152906001019060200180831161065157829003601f168201915b5050505050815260200160018201548152602001600282015f9054906101000a900460ff161515151581525050905090565b60606001805480602002602001604051908101604052809291908181526020015f905b8282101561081c578382905f5260205f2090600302016040518060600160405290815f820180546106f3906111e4565b80601f016020809104026020016040519081016040528092919081815260200182805461071f906111e4565b801561076a5780601f106107415761010080835404028352916020019161076a565b820191905f5260205f20905b81548152906001019060200180831161074d57829003601f168201915b50505050508152602001600182018054610783906111e4565b80601f01602080910402602001604051908101604052809291908181526020018280546107af906111e4565b80156107fa5780601f106107d1576101008083540402835291602001916107fa565b820191905f5260205f20905b8154815290600101906020018083116107dd57829003601f168201915b50505050508152602001600282015481525050815260200190600101906106c3565b50505050905090565b5f805f3373ffffffffffffffffffffffffffffffffffffffff1673ffffffffffffffffffffffffffffffffffffffff1681526020019081526020015f205f01805461086f906111e4565b9050036108b1576040517f08c379a00000000000000000000000000000000000000000000000000000000081526004016108a89061171a565b60405180910390fd5b5f60405180606001604052805f803373ffffffffffffffffffffffffffffffffffffffff1673ffffffffffffffffffffffffffffffffffffffff1681526020019081526020015f205f018054610906906111e4565b80601f0160208091040260200160405190810160405280929190818152602001828054610932906111e4565b801561097d5780601f106109545761010080835404028352916020019161097d565b820191905f5260205f20905b81548152906001019060200180831161096057829003601f168201915b50505050508152602001838152602001428152509050600181908060018154018082558091505060019003905f5260205f2090600302015f909190919091505f820151815f0190816109cf91906115d3565b5060208201518160010190816109e591906115d3565b506040820151816002015550507f5b90050d2b9fbc7b81b8cee8fd59d7f9193509e0d007bd5e71f7e7ba7295ca7b5f803373ffffffffffffffffffffffffffffffffffffffff1673ffffffffffffffffffffffffffffffffffffffff1681526020019081526020015f205f018342604051610a62939291906117b9565b60405180910390a15050565b5f602052805f5260405f205f91509050805f018054610a8c906111e4565b80601f0160208091040260200160405190810160405280929190818152602001828054610ab8906111e4565b8015610b035780601f10610ada57610100808354040283529160200191610b03565b820191905f5260205f20905b815481529060010190602001808311610ae657829003601f168201915b505050505090806001015490806002015f9054906101000a900460ff16905083565b6040518060600160405280606081526020015f80191681526020015f151581525090565b5f604051905090565b5f80fd5b5f80fd5b5f80fd5b5f80fd5b5f601f19601f8301169050919050565b7f4e487b71000000000000000000000000000000000000000000000000000000005f52604160045260245ffd5b610ba882610b62565b810181811067ffffffffffffffff82111715610bc757610bc6610b72565b5b80604052505050565b5f610bd9610b49565b9050610be58282610b9f565b919050565b5f67ffffffffffffffff821115610c0457610c03610b72565b5b610c0d82610b62565b9050602081019050919050565b828183375f83830152505050565b5f610c3a610c3584610bea565b610bd0565b905082815260208101848484011115610c5657610c55610b5e565b5b610c61848285610c1a565b509392505050565b5f82601f830112610c7d57610c7c610b5a565b5b8135610c8d848260208601610c28565b91505092915050565b5f8060408385031215610cac57610cab610b52565b5b5f83013567ffffffffffffffff811115610cc957610cc8610b56565b5b610cd585828601610c69565b925050602083013567ffffffffffffffff811115610cf657610cf5610b56565b5b610d0285828601610c69565b9150509250929050565b5f819050919050565b610d1e81610d0c565b8114610d28575f80fd5b50565b5f81359050610d3981610d15565b92915050565b5f60208284031215610d5457610d53610b52565b5b5f610d6184828501610d2b565b91505092915050565b5f81519050919050565b5f82825260208201905092915050565b8281835e5f83830152505050565b5f610d9c82610d6a565b610da68185610d74565b9350610db6818560208601610d84565b610dbf81610b62565b840191505092915050565b610dd381610d0c565b82525050565b5f6060820190508181035f830152610df18186610d92565b90508181036020830152610e058185610d92565b9050610e146040830184610dca565b949350505050565b5f82825260208201905092915050565b5f610e3682610d6a565b610e408185610e1c565b9350610e50818560208601610d84565b610e5981610b62565b840191505092915050565b5f819050919050565b610e7681610e64565b82525050565b5f8115159050919050565b610e9081610e7c565b82525050565b5f606083015f8301518482035f860152610eb08282610e2c565b9150506020830151610ec56020860182610e6d565b506040830151610ed86040860182610e87565b508091505092915050565b5f6020820190508181035f830152610efb8184610e96565b905092915050565b5f81519050919050565b5f82825260208201905092915050565b5f819050602082019050919050565b610f3581610d0c565b82525050565b5f606083015f8301518482035f860152610f558282610e2c565b91505060208301518482036020860152610f6f8282610e2c565b9150506040830151610f846040860182610f2c565b508091505092915050565b5f610f9a8383610f3b565b905092915050565b5f602082019050919050565b5f610fb882610f03565b610fc28185610f0d565b935083602082028501610fd485610f1d565b805f5b8581101561100f5784840389528151610ff08582610f8f565b9450610ffb83610fa2565b925060208a01995050600181019050610fd7565b50829750879550505050505092915050565b5f6020820190508181035f8301526110398184610fae565b905092915050565b5f6020828403121561105657611055610b52565b5b5f82013567ffffffffffffffff81111561107357611072610b56565b5b61107f84828501610c69565b91505092915050565b5f73ffffffffffffffffffffffffffffffffffffffff82169050919050565b5f6110b182611088565b9050919050565b6110c1816110a7565b81146110cb575f80fd5b50565b5f813590506110dc816110b8565b92915050565b5f602082840312156110f7576110f6610b52565b5b5f611104848285016110ce565b91505092915050565b61111681610e64565b82525050565b61112581610e7c565b82525050565b5f6060820190508181035f8301526111438186610d92565b9050611152602083018561110d565b61115f604083018461111c565b949350505050565b5f81905092915050565b5f61117b82610d6a565b6111858185611167565b9350611195818560208601610d84565b80840191505092915050565b5f6111ac8284611171565b915081905092915050565b7f4e487b71000000000000000000000000000000000000000000000000000000005f52602260045260245ffd5b5f60028204905060018216806111fb57607f821691505b60208210810361120e5761120d6111b7565b5b50919050565b5f819050815f5260205f209050919050565b5f8154611232816111e4565b61123c8186611167565b9450600182165f8114611256576001811461126b5761129d565b60ff198316865281151582028601935061129d565b61127485611214565b5f5b8381101561129557815481890152600182019150602081019050611276565b838801955050505b50505092915050565b5f6112b18284611226565b915081905092915050565b7f557365726e616d6520616c72656164792074616b656e000000000000000000005f82015250565b5f6112f0601683610d74565b91506112fb826112bc565b602082019050919050565b5f6020820190508181035f83015261131d816112e4565b9050919050565b7f5573657220616c726561647920657869737473000000000000000000000000005f82015250565b5f611358601383610d74565b915061136382611324565b602082019050919050565b5f6020820190508181035f8301526113858161134c565b9050919050565b7f61646d696e0000000000000000000000000000000000000000000000000000005f82015250565b5f6113c0600583611167565b91506113cb8261138c565b600582019050919050565b5f6113e0826113b4565b9150819050919050565b7f61676861000000000000000000000000000000000000000000000000000000005f82015250565b5f61141e600483611167565b9150611429826113ea565b600482019050919050565b5f61143e82611412565b9150819050919050565b5f6020601f8301049050919050565b5f82821b905092915050565b5f600883026114927fffffffffffffffffffffffffffffffffffffffffffffffffffffffffffffffff82611457565b61149c8683611457565b95508019841693508086168417925050509392505050565b5f819050919050565b5f6114d76114d26114cd84610d0c565b6114b4565b610d0c565b9050919050565b5f819050919050565b6114f0836114bd565b6115046114fc826114de565b848454611463565b825550505050565b5f90565b61151861150c565b6115238184846114e7565b505050565b5b818110156115465761153b5f82611510565b600181019050611529565b5050565b601f82111561158b5761155c81611214565b61156584611448565b81016020851015611574578190505b61158861158085611448565b830182611528565b50505b505050565b5f82821c905092915050565b5f6115ab5f1984600802611590565b1980831691505092915050565b5f6115c3838361159c565b9150826002028217905092915050565b6115dc82610d6a565b67ffffffffffffffff8111156115f5576115f4610b72565b5b6115ff82546111e4565b61160a82828561154a565b5f60209050601f83116001811461163b575f8415611629578287015190505b61163385826115b8565b86555061169a565b601f19841661164986611214565b5f5b828110156116705784890151825560018201915060208501945060208101905061164b565b8683101561168d5784890151611689601f89168261159c565b8355505b6001600288020188555050505b505050505050565b5f6040820190508181035f8301526116ba8185610d92565b90506116c9602083018461111c565b9392505050565b7f5573657220646f6573206e6f74206578697374000000000000000000000000005f82015250565b5f611704601383610d74565b915061170f826116d0565b602082019050919050565b5f6020820190508181035f830152611731816116f8565b9050919050565b5f8154611744816111e4565b61174e8186610d74565b9450600182165f8114611768576001811461177e576117b0565b60ff1983168652811515602002860193506117b0565b61178785611214565b5f5b838110156117a857815481890152600182019150602081019050611789565b808801955050505b50505092915050565b5f6060820190508181035f8301526117d18186611738565b905081810360208301526117e58185610d92565b90506117f46040830184610dca565b94935050505056fea26469706673582212209ad5b2d6669fb2befb85f5c67eabb1ccf8b893a0cf0a55008786167e5a84eaa364736f6c634300081a0033",
			"opcodes": "PUSH1 0x80 PUSH1 0x40 MSTORE CALLVALUE DUP1 ISZERO PUSH1 0xE JUMPI PUSH0 DUP1 REVERT JUMPDEST POP PUSH2 0x1832 DUP1 PUSH2 0x1C PUSH0 CODECOPY PUSH0 RETURN INVALID PUSH1 0x80 PUSH1 0x40 MSTORE CALLVALUE DUP1 ISZERO PUSH2 0xF JUMPI PUSH0 DUP1 REVERT JUMPDEST POP PUSH1 0x4 CALLDATASIZE LT PUSH2 0x60 JUMPI PUSH0 CALLDATALOAD PUSH1 0xE0 SHR DUP1 PUSH4 0x79EAF34 EQ PUSH2 0x64 JUMPI DUP1 PUSH4 0xB1E7F83 EQ PUSH2 0x80 JUMPI DUP1 PUSH4 0x22E8C87D EQ PUSH2 0xB2 JUMPI DUP1 PUSH4 0x41F3004A EQ PUSH2 0xD0 JUMPI DUP1 PUSH4 0xA6322819 EQ PUSH2 0xEE JUMPI DUP1 PUSH4 0xA87430BA EQ PUSH2 0x10A JUMPI JUMPDEST PUSH0 DUP1 REVERT JUMPDEST PUSH2 0x7E PUSH1 0x4 DUP1 CALLDATASIZE SUB DUP2 ADD SWAP1 PUSH2 0x79 SWAP2 SWAP1 PUSH2 0xC96 JUMP JUMPDEST PUSH2 0x13C JUMP JUMPDEST STOP JUMPDEST PUSH2 0x9A PUSH1 0x4 DUP1 CALLDATASIZE SUB DUP2 ADD SWAP1 PUSH2 0x95 SWAP2 SWAP1 PUSH2 0xD3F JUMP JUMPDEST PUSH2 0x458 JUMP JUMPDEST PUSH1 0x40 MLOAD PUSH2 0xA9 SWAP4 SWAP3 SWAP2 SWAP1 PUSH2 0xDD9 JUMP JUMPDEST PUSH1 0x40 MLOAD DUP1 SWAP2 SUB SWAP1 RETURN JUMPDEST PUSH2 0xBA PUSH2 0x599 JUMP JUMPDEST PUSH1 0x40 MLOAD PUSH2 0xC7 SWAP2 SWAP1 PUSH2 0xEE3 JUMP JUMPDEST PUSH1 0x40 MLOAD DUP1 SWAP2 SUB SWAP1 RETURN JUMPDEST PUSH2 0xD8 PUSH2 0x6A0 JUMP JUMPDEST PUSH1 0x40 MLOAD PUSH2 0xE5 SWAP2 SWAP1 PUSH2 0x1021 JUMP JUMPDEST PUSH1 0x40 MLOAD DUP1 SWAP2 SUB SWAP1 RETURN JUMPDEST PUSH2 0x108 PUSH1 0x4 DUP1 CALLDATASIZE SUB DUP2 ADD SWAP1 PUSH2 0x103 SWAP2 SWAP1 PUSH2 0x1041 JUMP JUMPDEST PUSH2 0x825 JUMP JUMPDEST STOP JUMPDEST PUSH2 0x124 PUSH1 0x4 DUP1 CALLDATASIZE SUB DUP2 ADD SWAP1 PUSH2 0x11F SWAP2 SWAP1 PUSH2 0x10E2 JUMP JUMPDEST PUSH2 0xA6E JUMP JUMPDEST PUSH1 0x40 MLOAD PUSH2 0x133 SWAP4 SWAP3 SWAP2 SWAP1 PUSH2 0x112B JUMP JUMPDEST PUSH1 0x40 MLOAD DUP1 SWAP2 SUB SWAP1 RETURN JUMPDEST DUP2 PUSH0 JUMPDEST PUSH1 0x1 DUP1 SLOAD SWAP1 POP DUP2 LT ISZERO PUSH2 0x224 JUMPI DUP2 PUSH1 0x40 MLOAD PUSH1 0x20 ADD PUSH2 0x15D SWAP2 SWAP1 PUSH2 0x11A1 JUMP JUMPDEST PUSH1 0x40 MLOAD PUSH1 0x20 DUP2 DUP4 SUB SUB DUP2 MSTORE SWAP1 PUSH1 0x40 MSTORE DUP1 MLOAD SWAP1 PUSH1 0x20 ADD KECCAK256 PUSH0 DUP1 CALLER PUSH20 0xFFFFFFFFFFFFFFFFFFFFFFFFFFFFFFFFFFFFFFFF AND PUSH20 0xFFFFFFFFFFFFFFFFFFFFFFFFFFFFFFFFFFFFFFFF AND DUP2 MSTORE PUSH1 0x20 ADD SWAP1 DUP2 MSTORE PUSH1 0x20 ADD PUSH0 KECCAK256 PUSH0 ADD PUSH1 0x40 MLOAD PUSH1 0x20 ADD PUSH2 0x1C1 SWAP2 SWAP1 PUSH2 0x12A6 JUMP JUMPDEST PUSH1 0x40 MLOAD PUSH1 0x20 DUP2 DUP4 SUB SUB DUP2 MSTORE SWAP1 PUSH1 0x40 MSTORE DUP1 MLOAD SWAP1 PUSH1 0x20 ADD KECCAK256 SUB PUSH2 0x217 JUMPI PUSH1 0x40 MLOAD PUSH32 0x8C379A000000000000000000000000000000000000000000000000000000000 DUP2 MSTORE PUSH1 0x4 ADD PUSH2 0x20E SWAP1 PUSH2 0x1306 JUMP JUMPDEST PUSH1 0x40 MLOAD DUP1 SWAP2 SUB SWAP1 REVERT JUMPDEST DUP1 DUP1 PUSH1 0x1 ADD SWAP2 POP POP PUSH2 0x13F JUMP JUMPDEST POP PUSH0 DUP1 PUSH0 CALLER PUSH20 0xFFFFFFFFFFFFFFFFFFFFFFFFFFFFFFFFFFFFFFFF AND PUSH20 0xFFFFFFFFFFFFFFFFFFFFFFFFFFFFFFFFFFFFFFFF AND DUP2 MSTORE PUSH1 0x20 ADD SWAP1 DUP2 MSTORE PUSH1 0x20 ADD PUSH0 KECCAK256 PUSH0 ADD DUP1 SLOAD PUSH2 0x26F SWAP1 PUSH2 0x11E4 JUMP JUMPDEST SWAP1 POP EQ PUSH2 0x2B1 JUMPI PUSH1 0x40 MLOAD PUSH32 0x8C379A000000000000000000000000000000000000000000000000000000000 DUP2 MSTORE PUSH1 0x4 ADD PUSH2 0x2A8 SWAP1 PUSH2 0x136E JUMP JUMPDEST PUSH1 0x40 MLOAD DUP1 SWAP2 SUB SWAP1 REVERT JUMPDEST PUSH0 PUSH1 0x40 MLOAD PUSH1 0x20 ADD PUSH2 0x2C1 SWAP1 PUSH2 0x13D6 JUMP JUMPDEST PUSH1 0x40 MLOAD PUSH1 0x20 DUP2 DUP4 SUB SUB DUP2 MSTORE SWAP1 PUSH1 0x40 MSTORE DUP1 MLOAD SWAP1 PUSH1 0x20 ADD KECCAK256 DUP5 PUSH1 0x40 MLOAD PUSH1 0x20 ADD PUSH2 0x2E8 SWAP2 SWAP1 PUSH2 0x11A1 JUMP JUMPDEST PUSH1 0x40 MLOAD PUSH1 0x20 DUP2 DUP4 SUB SUB DUP2 MSTORE SWAP1 PUSH1 0x40 MSTORE DUP1 MLOAD SWAP1 PUSH1 0x20 ADD KECCAK256 EQ DUP1 PUSH2 0x353 JUMPI POP PUSH1 0x40 MLOAD PUSH1 0x20 ADD PUSH2 0x314 SWAP1 PUSH2 0x1434 JUMP JUMPDEST PUSH1 0x40 MLOAD PUSH1 0x20 DUP2 DUP4 SUB SUB DUP2 MSTORE SWAP1 PUSH1 0x40 MSTORE DUP1 MLOAD SWAP1 PUSH1 0x20 ADD KECCAK256 DUP5 PUSH1 0x40 MLOAD PUSH1 0x20 ADD PUSH2 0x33B SWAP2 SWAP1 PUSH2 0x11A1 JUMP JUMPDEST PUSH1 0x40 MLOAD PUSH1 0x20 DUP2 DUP4 SUB SUB DUP2 MSTORE SWAP1 PUSH1 0x40 MSTORE DUP1 MLOAD SWAP1 PUSH1 0x20 ADD KECCAK256 EQ JUMPDEST SWAP1 POP PUSH0 DUP4 PUSH1 0x40 MLOAD PUSH1 0x20 ADD PUSH2 0x367 SWAP2 SWAP1 PUSH2 0x11A1 JUMP JUMPDEST PUSH1 0x40 MLOAD PUSH1 0x20 DUP2 DUP4 SUB SUB DUP2 MSTORE SWAP1 PUSH1 0x40 MSTORE DUP1 MLOAD SWAP1 PUSH1 0x20 ADD KECCAK256 SWAP1 POP PUSH1 0x40 MLOAD DUP1 PUSH1 0x60 ADD PUSH1 0x40 MSTORE DUP1 DUP7 DUP2 MSTORE PUSH1 0x20 ADD DUP3 DUP2 MSTORE PUSH1 0x20 ADD DUP4 ISZERO ISZERO DUP2 MSTORE POP PUSH0 DUP1 CALLER PUSH20 0xFFFFFFFFFFFFFFFFFFFFFFFFFFFFFFFFFFFFFFFF AND PUSH20 0xFFFFFFFFFFFFFFFFFFFFFFFFFFFFFFFFFFFFFFFF AND DUP2 MSTORE PUSH1 0x20 ADD SWAP1 DUP2 MSTORE PUSH1 0x20 ADD PUSH0 KECCAK256 PUSH0 DUP3 ADD MLOAD DUP2 PUSH0 ADD SWAP1 DUP2 PUSH2 0x3EB SWAP2 SWAP1 PUSH2 0x15D3 JUMP JUMPDEST POP PUSH1 0x20 DUP3 ADD MLOAD DUP2 PUSH1 0x1 ADD SSTORE PUSH1 0x40 DUP3 ADD MLOAD DUP2 PUSH1 0x2 ADD PUSH0 PUSH2 0x100 EXP DUP2 SLOAD DUP2 PUSH1 0xFF MUL NOT AND SWAP1 DUP4 ISZERO ISZERO MUL OR SWAP1 SSTORE POP SWAP1 POP POP PUSH32 0x1FF0E184DB000E0421DFB00AA59D3CA0043BFD62B6CA0F114291A1727D293DF5 DUP6 DUP4 PUSH1 0x40 MLOAD PUSH2 0x449 SWAP3 SWAP2 SWAP1 PUSH2 0x16A2 JUMP JUMPDEST PUSH1 0x40 MLOAD DUP1 SWAP2 SUB SWAP1 LOG1 POP POP POP POP POP JUMP JUMPDEST PUSH1 0x1 DUP2 DUP2 SLOAD DUP2 LT PUSH2 0x467 JUMPI PUSH0 DUP1 REVERT JUMPDEST SWAP1 PUSH0 MSTORE PUSH1 0x20 PUSH0 KECCAK256 SWAP1 PUSH1 0x3 MUL ADD PUSH0 SWAP2 POP SWAP1 POP DUP1 PUSH0 ADD DUP1 SLOAD PUSH2 0x486 SWAP1 PUSH2 0x11E4 JUMP JUMPDEST DUP1 PUSH1 0x1F ADD PUSH1 0x20 DUP1 SWAP2 DIV MUL PUSH1 0x20 ADD PUSH1 0x40 MLOAD SWAP1 DUP2 ADD PUSH1 0x40 MSTORE DUP1 SWAP3 SWAP2 SWAP1 DUP2 DUP2 MSTORE PUSH1 0x20 ADD DUP3 DUP1 SLOAD PUSH2 0x4B2 SWAP1 PUSH2 0x11E4 JUMP JUMPDEST DUP1 ISZERO PUSH2 0x4FD JUMPI DUP1 PUSH1 0x1F LT PUSH2 0x4D4 JUMPI PUSH2 0x100 DUP1 DUP4 SLOAD DIV MUL DUP4 MSTORE SWAP2 PUSH1 0x20 ADD SWAP2 PUSH2 0x4FD JUMP JUMPDEST DUP3 ADD SWAP2 SWAP1 PUSH0 MSTORE PUSH1 0x20 PUSH0 KECCAK256 SWAP1 JUMPDEST DUP2 SLOAD DUP2 MSTORE SWAP1 PUSH1 0x1 ADD SWAP1 PUSH1 0x20 ADD DUP1 DUP4 GT PUSH2 0x4E0 JUMPI DUP3 SWAP1 SUB PUSH1 0x1F AND DUP3 ADD SWAP2 JUMPDEST POP POP POP POP POP SWAP1 DUP1 PUSH1 0x1 ADD DUP1 SLOAD PUSH2 0x512 SWAP1 PUSH2 0x11E4 JUMP JUMPDEST DUP1 PUSH1 0x1F ADD PUSH1 0x20 DUP1 SWAP2 DIV MUL PUSH1 0x20 ADD PUSH1 0x40 MLOAD SWAP1 DUP2 ADD PUSH1 0x40 MSTORE DUP1 SWAP3 SWAP2 SWAP1 DUP2 DUP2 MSTORE PUSH1 0x20 ADD DUP3 DUP1 SLOAD PUSH2 0x53E SWAP1 PUSH2 0x11E4 JUMP JUMPDEST DUP1 ISZERO PUSH2 0x589 JUMPI DUP1 PUSH1 0x1F LT PUSH2 0x560 JUMPI PUSH2 0x100 DUP1 DUP4 SLOAD DIV MUL DUP4 MSTORE SWAP2 PUSH1 0x20 ADD SWAP2 PUSH2 0x589 JUMP JUMPDEST DUP3 ADD SWAP2 SWAP1 PUSH0 MSTORE PUSH1 0x20 PUSH0 KECCAK256 SWAP1 JUMPDEST DUP2 SLOAD DUP2 MSTORE SWAP1 PUSH1 0x1 ADD SWAP1 PUSH1 0x20 ADD DUP1 DUP4 GT PUSH2 0x56C JUMPI DUP3 SWAP1 SUB PUSH1 0x1F AND DUP3 ADD SWAP2 JUMPDEST POP POP POP POP POP SWAP1 DUP1 PUSH1 0x2 ADD SLOAD SWAP1 POP DUP4 JUMP JUMPDEST PUSH2 0x5A1 PUSH2 0xB25 JUMP JUMPDEST PUSH0 DUP1 CALLER PUSH20 0xFFFFFFFFFFFFFFFFFFFFFFFFFFFFFFFFFFFFFFFF AND PUSH20 0xFFFFFFFFFFFFFFFFFFFFFFFFFFFFFFFFFFFFFFFF AND DUP2 MSTORE PUSH1 0x20 ADD SWAP1 DUP2 MSTORE PUSH1 0x20 ADD PUSH0 KECCAK256 PUSH1 0x40 MLOAD DUP1 PUSH1 0x60 ADD PUSH1 0x40 MSTORE SWAP1 DUP2 PUSH0 DUP3 ADD DUP1 SLOAD PUSH2 0x5F7 SWAP1 PUSH2 0x11E4 JUMP JUMPDEST DUP1 PUSH1 0x1F ADD PUSH1 0x20 DUP1 SWAP2 DIV MUL PUSH1 0x20 ADD PUSH1 0x40 MLOAD SWAP1 DUP2 ADD PUSH1 0x40 MSTORE DUP1 SWAP3 SWAP2 SWAP1 DUP2 DUP2 MSTORE PUSH1 0x20 ADD DUP3 DUP1 SLOAD PUSH2 0x623 SWAP1 PUSH2 0x11E4 JUMP JUMPDEST DUP1 ISZERO PUSH2 0x66E JUMPI DUP1 PUSH1 0x1F LT PUSH2 0x645 JUMPI PUSH2 0x100 DUP1 DUP4 SLOAD DIV MUL DUP4 MSTORE SWAP2 PUSH1 0x20 ADD SWAP2 PUSH2 0x66E JUMP JUMPDEST DUP3 ADD SWAP2 SWAP1 PUSH0 MSTORE PUSH1 0x20 PUSH0 KECCAK256 SWAP1 JUMPDEST DUP2 SLOAD DUP2 MSTORE SWAP1 PUSH1 0x1 ADD SWAP1 PUSH1 0x20 ADD DUP1 DUP4 GT PUSH2 0x651 JUMPI DUP3 SWAP1 SUB PUSH1 0x1F AND DUP3 ADD SWAP2 JUMPDEST POP POP POP POP POP DUP2 MSTORE PUSH1 0x20 ADD PUSH1 0x1 DUP3 ADD SLOAD DUP2 MSTORE PUSH1 0x20 ADD PUSH1 0x2 DUP3 ADD PUSH0 SWAP1 SLOAD SWAP1 PUSH2 0x100 EXP SWAP1 DIV PUSH1 0xFF AND ISZERO ISZERO ISZERO ISZERO DUP2 MSTORE POP POP SWAP1 POP SWAP1 JUMP JUMPDEST PUSH1 0x60 PUSH1 0x1 DUP1 SLOAD DUP1 PUSH1 0x20 MUL PUSH1 0x20 ADD PUSH1 0x40 MLOAD SWAP1 DUP2 ADD PUSH1 0x40 MSTORE DUP1 SWAP3 SWAP2 SWAP1 DUP2 DUP2 MSTORE PUSH1 0x20 ADD PUSH0 SWAP1 JUMPDEST DUP3 DUP3 LT ISZERO PUSH2 0x81C JUMPI DUP4 DUP3 SWAP1 PUSH0 MSTORE PUSH1 0x20 PUSH0 KECCAK256 SWAP1 PUSH1 0x3 MUL ADD PUSH1 0x40 MLOAD DUP1 PUSH1 0x60 ADD PUSH1 0x40 MSTORE SWAP1 DUP2 PUSH0 DUP3 ADD DUP1 SLOAD PUSH2 0x6F3 SWAP1 PUSH2 0x11E4 JUMP JUMPDEST DUP1 PUSH1 0x1F ADD PUSH1 0x20 DUP1 SWAP2 DIV MUL PUSH1 0x20 ADD PUSH1 0x40 MLOAD SWAP1 DUP2 ADD PUSH1 0x40 MSTORE DUP1 SWAP3 SWAP2 SWAP1 DUP2 DUP2 MSTORE PUSH1 0x20 ADD DUP3 DUP1 SLOAD PUSH2 0x71F SWAP1 PUSH2 0x11E4 JUMP JUMPDEST DUP1 ISZERO PUSH2 0x76A JUMPI DUP1 PUSH1 0x1F LT PUSH2 0x741 JUMPI PUSH2 0x100 DUP1 DUP4 SLOAD DIV MUL DUP4 MSTORE SWAP2 PUSH1 0x20 ADD SWAP2 PUSH2 0x76A JUMP JUMPDEST DUP3 ADD SWAP2 SWAP1 PUSH0 MSTORE PUSH1 0x20 PUSH0 KECCAK256 SWAP1 JUMPDEST DUP2 SLOAD DUP2 MSTORE SWAP1 PUSH1 0x1 ADD SWAP1 PUSH1 0x20 ADD DUP1 DUP4 GT PUSH2 0x74D JUMPI DUP3 SWAP1 SUB PUSH1 0x1F AND DUP3 ADD SWAP2 JUMPDEST POP POP POP POP POP DUP2 MSTORE PUSH1 0x20 ADD PUSH1 0x1 DUP3 ADD DUP1 SLOAD PUSH2 0x783 SWAP1 PUSH2 0x11E4 JUMP JUMPDEST DUP1 PUSH1 0x1F ADD PUSH1 0x20 DUP1 SWAP2 DIV MUL PUSH1 0x20 ADD PUSH1 0x40 MLOAD SWAP1 DUP2 ADD PUSH1 0x40 MSTORE DUP1 SWAP3 SWAP2 SWAP1 DUP2 DUP2 MSTORE PUSH1 0x20 ADD DUP3 DUP1 SLOAD PUSH2 0x7AF SWAP1 PUSH2 0x11E4 JUMP JUMPDEST DUP1 ISZERO PUSH2 0x7FA JUMPI DUP1 PUSH1 0x1F LT PUSH2 0x7D1 JUMPI PUSH2 0x100 DUP1 DUP4 SLOAD DIV MUL DUP4 MSTORE SWAP2 PUSH1 0x20 ADD SWAP2 PUSH2 0x7FA JUMP JUMPDEST DUP3 ADD SWAP2 SWAP1 PUSH0 MSTORE PUSH1 0x20 PUSH0 KECCAK256 SWAP1 JUMPDEST DUP2 SLOAD DUP2 MSTORE SWAP1 PUSH1 0x1 ADD SWAP1 PUSH1 0x20 ADD DUP1 DUP4 GT PUSH2 0x7DD JUMPI DUP3 SWAP1 SUB PUSH1 0x1F AND DUP3 ADD SWAP2 JUMPDEST POP POP POP POP POP DUP2 MSTORE PUSH1 0x20 ADD PUSH1 0x2 DUP3 ADD SLOAD DUP2 MSTORE POP POP DUP2 MSTORE PUSH1 0x20 ADD SWAP1 PUSH1 0x1 ADD SWAP1 PUSH2 0x6C3 JUMP JUMPDEST POP POP POP POP SWAP1 POP SWAP1 JUMP JUMPDEST PUSH0 DUP1 PUSH0 CALLER PUSH20 0xFFFFFFFFFFFFFFFFFFFFFFFFFFFFFFFFFFFFFFFF AND PUSH20 0xFFFFFFFFFFFFFFFFFFFFFFFFFFFFFFFFFFFFFFFF AND DUP2 MSTORE PUSH1 0x20 ADD SWAP1 DUP2 MSTORE PUSH1 0x20 ADD PUSH0 KECCAK256 PUSH0 ADD DUP1 SLOAD PUSH2 0x86F SWAP1 PUSH2 0x11E4 JUMP JUMPDEST SWAP1 POP SUB PUSH2 0x8B1 JUMPI PUSH1 0x40 MLOAD PUSH32 0x8C379A000000000000000000000000000000000000000000000000000000000 DUP2 MSTORE PUSH1 0x4 ADD PUSH2 0x8A8 SWAP1 PUSH2 0x171A JUMP JUMPDEST PUSH1 0x40 MLOAD DUP1 SWAP2 SUB SWAP1 REVERT JUMPDEST PUSH0 PUSH1 0x40 MLOAD DUP1 PUSH1 0x60 ADD PUSH1 0x40 MSTORE DUP1 PUSH0 DUP1 CALLER PUSH20 0xFFFFFFFFFFFFFFFFFFFFFFFFFFFFFFFFFFFFFFFF AND PUSH20 0xFFFFFFFFFFFFFFFFFFFFFFFFFFFFFFFFFFFFFFFF AND DUP2 MSTORE PUSH1 0x20 ADD SWAP1 DUP2 MSTORE PUSH1 0x20 ADD PUSH0 KECCAK256 PUSH0 ADD DUP1 SLOAD PUSH2 0x906 SWAP1 PUSH2 0x11E4 JUMP JUMPDEST DUP1 PUSH1 0x1F ADD PUSH1 0x20 DUP1 SWAP2 DIV MUL PUSH1 0x20 ADD PUSH1 0x40 MLOAD SWAP1 DUP2 ADD PUSH1 0x40 MSTORE DUP1 SWAP3 SWAP2 SWAP1 DUP2 DUP2 MSTORE PUSH1 0x20 ADD DUP3 DUP1 SLOAD PUSH2 0x932 SWAP1 PUSH2 0x11E4 JUMP JUMPDEST DUP1 ISZERO PUSH2 0x97D JUMPI DUP1 PUSH1 0x1F LT PUSH2 0x954 JUMPI PUSH2 0x100 DUP1 DUP4 SLOAD DIV MUL DUP4 MSTORE SWAP2 PUSH1 0x20 ADD SWAP2 PUSH2 0x97D JUMP JUMPDEST DUP3 ADD SWAP2 SWAP1 PUSH0 MSTORE PUSH1 0x20 PUSH0 KECCAK256 SWAP1 JUMPDEST DUP2 SLOAD DUP2 MSTORE SWAP1 PUSH1 0x1 ADD SWAP1 PUSH1 0x20 ADD DUP1 DUP4 GT PUSH2 0x960 JUMPI DUP3 SWAP1 SUB PUSH1 0x1F AND DUP3 ADD SWAP2 JUMPDEST POP POP POP POP POP DUP2 MSTORE PUSH1 0x20 ADD DUP4 DUP2 MSTORE PUSH1 0x20 ADD TIMESTAMP DUP2 MSTORE POP SWAP1 POP PUSH1 0x1 DUP2 SWAP1 DUP1 PUSH1 0x1 DUP2 SLOAD ADD DUP1 DUP3 SSTORE DUP1 SWAP2 POP POP PUSH1 0x1 SWAP1 SUB SWAP1 PUSH0 MSTORE PUSH1 0x20 PUSH0 KECCAK256 SWAP1 PUSH1 0x3 MUL ADD PUSH0 SWAP1 SWAP2 SWAP1 SWAP2 SWAP1 SWAP2 POP PUSH0 DUP3 ADD MLOAD DUP2 PUSH0 ADD SWAP1 DUP2 PUSH2 0x9CF SWAP2 SWAP1 PUSH2 0x15D3 JUMP JUMPDEST POP PUSH1 0x20 DUP3 ADD MLOAD DUP2 PUSH1 0x1 ADD SWAP1 DUP2 PUSH2 0x9E5 SWAP2 SWAP1 PUSH2 0x15D3 JUMP JUMPDEST POP PUSH1 0x40 DUP3 ADD MLOAD DUP2 PUSH1 0x2 ADD SSTORE POP POP PUSH32 0x5B90050D2B9FBC7B81B8CEE8FD59D7F9193509E0D007BD5E71F7E7BA7295CA7B PUSH0 DUP1 CALLER PUSH20 0xFFFFFFFFFFFFFFFFFFFFFFFFFFFFFFFFFFFFFFFF AND PUSH20 0xFFFFFFFFFFFFFFFFFFFFFFFFFFFFFFFFFFFFFFFF AND DUP2 MSTORE PUSH1 0x20 ADD SWAP1 DUP2 MSTORE PUSH1 0x20 ADD PUSH0 KECCAK256 PUSH0 ADD DUP4 TIMESTAMP PUSH1 0x40 MLOAD PUSH2 0xA62 SWAP4 SWAP3 SWAP2 SWAP1 PUSH2 0x17B9 JUMP JUMPDEST PUSH1 0x40 MLOAD DUP1 SWAP2 SUB SWAP1 LOG1 POP POP JUMP JUMPDEST PUSH0 PUSH1 0x20 MSTORE DUP1 PUSH0 MSTORE PUSH1 0x40 PUSH0 KECCAK256 PUSH0 SWAP2 POP SWAP1 POP DUP1 PUSH0 ADD DUP1 SLOAD PUSH2 0xA8C SWAP1 PUSH2 0x11E4 JUMP JUMPDEST DUP1 PUSH1 0x1F ADD PUSH1 0x20 DUP1 SWAP2 DIV MUL PUSH1 0x20 ADD PUSH1 0x40 MLOAD SWAP1 DUP2 ADD PUSH1 0x40 MSTORE DUP1 SWAP3 SWAP2 SWAP1 DUP2 DUP2 MSTORE PUSH1 0x20 ADD DUP3 DUP1 SLOAD PUSH2 0xAB8 SWAP1 PUSH2 0x11E4 JUMP JUMPDEST DUP1 ISZERO PUSH2 0xB03 JUMPI DUP1 PUSH1 0x1F LT PUSH2 0xADA JUMPI PUSH2 0x100 DUP1 DUP4 SLOAD DIV MUL DUP4 MSTORE SWAP2 PUSH1 0x20 ADD SWAP2 PUSH2 0xB03 JUMP JUMPDEST DUP3 ADD SWAP2 SWAP1 PUSH0 MSTORE PUSH1 0x20 PUSH0 KECCAK256 SWAP1 JUMPDEST DUP2 SLOAD DUP2 MSTORE SWAP1 PUSH1 0x1 ADD SWAP1 PUSH1 0x20 ADD DUP1 DUP4 GT PUSH2 0xAE6 JUMPI DUP3 SWAP1 SUB PUSH1 0x1F AND DUP3 ADD SWAP2 JUMPDEST POP POP POP POP POP SWAP1 DUP1 PUSH1 0x1 ADD SLOAD SWAP1 DUP1 PUSH1 0x2 ADD PUSH0 SWAP1 SLOAD SWAP1 PUSH2 0x100 EXP SWAP1 DIV PUSH1 0xFF AND SWAP1 POP DUP4 JUMP JUMPDEST PUSH1 0x40 MLOAD DUP1 PUSH1 0x60 ADD PUSH1 0x40 MSTORE DUP1 PUSH1 0x60 DUP2 MSTORE PUSH1 0x20 ADD PUSH0 DUP1 NOT AND DUP2 MSTORE PUSH1 0x20 ADD PUSH0 ISZERO ISZERO DUP2 MSTORE POP SWAP1 JUMP JUMPDEST PUSH0 PUSH1 0x40 MLOAD SWAP1 POP SWAP1 JUMP JUMPDEST PUSH0 DUP1 REVERT JUMPDEST PUSH0 DUP1 REVERT JUMPDEST PUSH0 DUP1 REVERT JUMPDEST PUSH0 DUP1 REVERT JUMPDEST PUSH0 PUSH1 0x1F NOT PUSH1 0x1F DUP4 ADD AND SWAP1 POP SWAP2 SWAP1 POP JUMP JUMPDEST PUSH32 0x4E487B7100000000000000000000000000000000000000000000000000000000 PUSH0 MSTORE PUSH1 0x41 PUSH1 0x4 MSTORE PUSH1 0x24 PUSH0 REVERT JUMPDEST PUSH2 0xBA8 DUP3 PUSH2 0xB62 JUMP JUMPDEST DUP2 ADD DUP2 DUP2 LT PUSH8 0xFFFFFFFFFFFFFFFF DUP3 GT OR ISZERO PUSH2 0xBC7 JUMPI PUSH2 0xBC6 PUSH2 0xB72 JUMP JUMPDEST JUMPDEST DUP1 PUSH1 0x40 MSTORE POP POP POP JUMP JUMPDEST PUSH0 PUSH2 0xBD9 PUSH2 0xB49 JUMP JUMPDEST SWAP1 POP PUSH2 0xBE5 DUP3 DUP3 PUSH2 0xB9F JUMP JUMPDEST SWAP2 SWAP1 POP JUMP JUMPDEST PUSH0 PUSH8 0xFFFFFFFFFFFFFFFF DUP3 GT ISZERO PUSH2 0xC04 JUMPI PUSH2 0xC03 PUSH2 0xB72 JUMP JUMPDEST JUMPDEST PUSH2 0xC0D DUP3 PUSH2 0xB62 JUMP JUMPDEST SWAP1 POP PUSH1 0x20 DUP2 ADD SWAP1 POP SWAP2 SWAP1 POP JUMP JUMPDEST DUP3 DUP2 DUP4 CALLDATACOPY PUSH0 DUP4 DUP4 ADD MSTORE POP POP POP JUMP JUMPDEST PUSH0 PUSH2 0xC3A PUSH2 0xC35 DUP5 PUSH2 0xBEA JUMP JUMPDEST PUSH2 0xBD0 JUMP JUMPDEST SWAP1 POP DUP3 DUP2 MSTORE PUSH1 0x20 DUP2 ADD DUP5 DUP5 DUP5 ADD GT ISZERO PUSH2 0xC56 JUMPI PUSH2 0xC55 PUSH2 0xB5E JUMP JUMPDEST JUMPDEST PUSH2 0xC61 DUP5 DUP3 DUP6 PUSH2 0xC1A JUMP JUMPDEST POP SWAP4 SWAP3 POP POP POP JUMP JUMPDEST PUSH0 DUP3 PUSH1 0x1F DUP4 ADD SLT PUSH2 0xC7D JUMPI PUSH2 0xC7C PUSH2 0xB5A JUMP JUMPDEST JUMPDEST DUP2 CALLDATALOAD PUSH2 0xC8D DUP5 DUP3 PUSH1 0x20 DUP7 ADD PUSH2 0xC28 JUMP JUMPDEST SWAP2 POP POP SWAP3 SWAP2 POP POP JUMP JUMPDEST PUSH0 DUP1 PUSH1 0x40 DUP4 DUP6 SUB SLT ISZERO PUSH2 0xCAC JUMPI PUSH2 0xCAB PUSH2 0xB52 JUMP JUMPDEST JUMPDEST PUSH0 DUP4 ADD CALLDATALOAD PUSH8 0xFFFFFFFFFFFFFFFF DUP2 GT ISZERO PUSH2 0xCC9 JUMPI PUSH2 0xCC8 PUSH2 0xB56 JUMP JUMPDEST JUMPDEST PUSH2 0xCD5 DUP6 DUP3 DUP7 ADD PUSH2 0xC69 JUMP JUMPDEST SWAP3 POP POP PUSH1 0x20 DUP4 ADD CALLDATALOAD PUSH8 0xFFFFFFFFFFFFFFFF DUP2 GT ISZERO PUSH2 0xCF6 JUMPI PUSH2 0xCF5 PUSH2 0xB56 JUMP JUMPDEST JUMPDEST PUSH2 0xD02 DUP6 DUP3 DUP7 ADD PUSH2 0xC69 JUMP JUMPDEST SWAP2 POP POP SWAP3 POP SWAP3 SWAP1 POP JUMP JUMPDEST PUSH0 DUP2 SWAP1 POP SWAP2 SWAP1 POP JUMP JUMPDEST PUSH2 0xD1E DUP2 PUSH2 0xD0C JUMP JUMPDEST DUP2 EQ PUSH2 0xD28 JUMPI PUSH0 DUP1 REVERT JUMPDEST POP JUMP JUMPDEST PUSH0 DUP2 CALLDATALOAD SWAP1 POP PUSH2 0xD39 DUP2 PUSH2 0xD15 JUMP JUMPDEST SWAP3 SWAP2 POP POP JUMP JUMPDEST PUSH0 PUSH1 0x20 DUP3 DUP5 SUB SLT ISZERO PUSH2 0xD54 JUMPI PUSH2 0xD53 PUSH2 0xB52 JUMP JUMPDEST JUMPDEST PUSH0 PUSH2 0xD61 DUP5 DUP3 DUP6 ADD PUSH2 0xD2B JUMP JUMPDEST SWAP2 POP POP SWAP3 SWAP2 POP POP JUMP JUMPDEST PUSH0 DUP2 MLOAD SWAP1 POP SWAP2 SWAP1 POP JUMP JUMPDEST PUSH0 DUP3 DUP3 MSTORE PUSH1 0x20 DUP3 ADD SWAP1 POP SWAP3 SWAP2 POP POP JUMP JUMPDEST DUP3 DUP2 DUP4 MCOPY PUSH0 DUP4 DUP4 ADD MSTORE POP POP POP JUMP JUMPDEST PUSH0 PUSH2 0xD9C DUP3 PUSH2 0xD6A JUMP JUMPDEST PUSH2 0xDA6 DUP2 DUP6 PUSH2 0xD74 JUMP JUMPDEST SWAP4 POP PUSH2 0xDB6 DUP2 DUP6 PUSH1 0x20 DUP7 ADD PUSH2 0xD84 JUMP JUMPDEST PUSH2 0xDBF DUP2 PUSH2 0xB62 JUMP JUMPDEST DUP5 ADD SWAP2 POP POP SWAP3 SWAP2 POP POP JUMP JUMPDEST PUSH2 0xDD3 DUP2 PUSH2 0xD0C JUMP JUMPDEST DUP3 MSTORE POP POP JUMP JUMPDEST PUSH0 PUSH1 0x60 DUP3 ADD SWAP1 POP DUP2 DUP2 SUB PUSH0 DUP4 ADD MSTORE PUSH2 0xDF1 DUP2 DUP7 PUSH2 0xD92 JUMP JUMPDEST SWAP1 POP DUP2 DUP2 SUB PUSH1 0x20 DUP4 ADD MSTORE PUSH2 0xE05 DUP2 DUP6 PUSH2 0xD92 JUMP JUMPDEST SWAP1 POP PUSH2 0xE14 PUSH1 0x40 DUP4 ADD DUP5 PUSH2 0xDCA JUMP JUMPDEST SWAP5 SWAP4 POP POP POP POP JUMP JUMPDEST PUSH0 DUP3 DUP3 MSTORE PUSH1 0x20 DUP3 ADD SWAP1 POP SWAP3 SWAP2 POP POP JUMP JUMPDEST PUSH0 PUSH2 0xE36 DUP3 PUSH2 0xD6A JUMP JUMPDEST PUSH2 0xE40 DUP2 DUP6 PUSH2 0xE1C JUMP JUMPDEST SWAP4 POP PUSH2 0xE50 DUP2 DUP6 PUSH1 0x20 DUP7 ADD PUSH2 0xD84 JUMP JUMPDEST PUSH2 0xE59 DUP2 PUSH2 0xB62 JUMP JUMPDEST DUP5 ADD SWAP2 POP POP SWAP3 SWAP2 POP POP JUMP JUMPDEST PUSH0 DUP2 SWAP1 POP SWAP2 SWAP1 POP JUMP JUMPDEST PUSH2 0xE76 DUP2 PUSH2 0xE64 JUMP JUMPDEST DUP3 MSTORE POP POP JUMP JUMPDEST PUSH0 DUP2 ISZERO ISZERO SWAP1 POP SWAP2 SWAP1 POP JUMP JUMPDEST PUSH2 0xE90 DUP2 PUSH2 0xE7C JUMP JUMPDEST DUP3 MSTORE POP POP JUMP JUMPDEST PUSH0 PUSH1 0x60 DUP4 ADD PUSH0 DUP4 ADD MLOAD DUP5 DUP3 SUB PUSH0 DUP7 ADD MSTORE PUSH2 0xEB0 DUP3 DUP3 PUSH2 0xE2C JUMP JUMPDEST SWAP2 POP POP PUSH1 0x20 DUP4 ADD MLOAD PUSH2 0xEC5 PUSH1 0x20 DUP7 ADD DUP3 PUSH2 0xE6D JUMP JUMPDEST POP PUSH1 0x40 DUP4 ADD MLOAD PUSH2 0xED8 PUSH1 0x40 DUP7 ADD DUP3 PUSH2 0xE87 JUMP JUMPDEST POP DUP1 SWAP2 POP POP SWAP3 SWAP2 POP POP JUMP JUMPDEST PUSH0 PUSH1 0x20 DUP3 ADD SWAP1 POP DUP2 DUP2 SUB PUSH0 DUP4 ADD MSTORE PUSH2 0xEFB DUP2 DUP5 PUSH2 0xE96 JUMP JUMPDEST SWAP1 POP SWAP3 SWAP2 POP POP JUMP JUMPDEST PUSH0 DUP2 MLOAD SWAP1 POP SWAP2 SWAP1 POP JUMP JUMPDEST PUSH0 DUP3 DUP3 MSTORE PUSH1 0x20 DUP3 ADD SWAP1 POP SWAP3 SWAP2 POP POP JUMP JUMPDEST PUSH0 DUP2 SWAP1 POP PUSH1 0x20 DUP3 ADD SWAP1 POP SWAP2 SWAP1 POP JUMP JUMPDEST PUSH2 0xF35 DUP2 PUSH2 0xD0C JUMP JUMPDEST DUP3 MSTORE POP POP JUMP JUMPDEST PUSH0 PUSH1 0x60 DUP4 ADD PUSH0 DUP4 ADD MLOAD DUP5 DUP3 SUB PUSH0 DUP7 ADD MSTORE PUSH2 0xF55 DUP3 DUP3 PUSH2 0xE2C JUMP JUMPDEST SWAP2 POP POP PUSH1 0x20 DUP4 ADD MLOAD DUP5 DUP3 SUB PUSH1 0x20 DUP7 ADD MSTORE PUSH2 0xF6F DUP3 DUP3 PUSH2 0xE2C JUMP JUMPDEST SWAP2 POP POP PUSH1 0x40 DUP4 ADD MLOAD PUSH2 0xF84 PUSH1 0x40 DUP7 ADD DUP3 PUSH2 0xF2C JUMP JUMPDEST POP DUP1 SWAP2 POP POP SWAP3 SWAP2 POP POP JUMP JUMPDEST PUSH0 PUSH2 0xF9A DUP4 DUP4 PUSH2 0xF3B JUMP JUMPDEST SWAP1 POP SWAP3 SWAP2 POP POP JUMP JUMPDEST PUSH0 PUSH1 0x20 DUP3 ADD SWAP1 POP SWAP2 SWAP1 POP JUMP JUMPDEST PUSH0 PUSH2 0xFB8 DUP3 PUSH2 0xF03 JUMP JUMPDEST PUSH2 0xFC2 DUP2 DUP6 PUSH2 0xF0D JUMP JUMPDEST SWAP4 POP DUP4 PUSH1 0x20 DUP3 MUL DUP6 ADD PUSH2 0xFD4 DUP6 PUSH2 0xF1D JUMP JUMPDEST DUP1 PUSH0 JUMPDEST DUP6 DUP2 LT ISZERO PUSH2 0x100F JUMPI DUP5 DUP5 SUB DUP10 MSTORE DUP2 MLOAD PUSH2 0xFF0 DUP6 DUP3 PUSH2 0xF8F JUMP JUMPDEST SWAP5 POP PUSH2 0xFFB DUP4 PUSH2 0xFA2 JUMP JUMPDEST SWAP3 POP PUSH1 0x20 DUP11 ADD SWAP10 POP POP PUSH1 0x1 DUP2 ADD SWAP1 POP PUSH2 0xFD7 JUMP JUMPDEST POP DUP3 SWAP8 POP DUP8 SWAP6 POP POP POP POP POP POP SWAP3 SWAP2 POP POP JUMP JUMPDEST PUSH0 PUSH1 0x20 DUP3 ADD SWAP1 POP DUP2 DUP2 SUB PUSH0 DUP4 ADD MSTORE PUSH2 0x1039 DUP2 DUP5 PUSH2 0xFAE JUMP JUMPDEST SWAP1 POP SWAP3 SWAP2 POP POP JUMP JUMPDEST PUSH0 PUSH1 0x20 DUP3 DUP5 SUB SLT ISZERO PUSH2 0x1056 JUMPI PUSH2 0x1055 PUSH2 0xB52 JUMP JUMPDEST JUMPDEST PUSH0 DUP3 ADD CALLDATALOAD PUSH8 0xFFFFFFFFFFFFFFFF DUP2 GT ISZERO PUSH2 0x1073 JUMPI PUSH2 0x1072 PUSH2 0xB56 JUMP JUMPDEST JUMPDEST PUSH2 0x107F DUP5 DUP3 DUP6 ADD PUSH2 0xC69 JUMP JUMPDEST SWAP2 POP POP SWAP3 SWAP2 POP POP JUMP JUMPDEST PUSH0 PUSH20 0xFFFFFFFFFFFFFFFFFFFFFFFFFFFFFFFFFFFFFFFF DUP3 AND SWAP1 POP SWAP2 SWAP1 POP JUMP JUMPDEST PUSH0 PUSH2 0x10B1 DUP3 PUSH2 0x1088 JUMP JUMPDEST SWAP1 POP SWAP2 SWAP1 POP JUMP JUMPDEST PUSH2 0x10C1 DUP2 PUSH2 0x10A7 JUMP JUMPDEST DUP2 EQ PUSH2 0x10CB JUMPI PUSH0 DUP1 REVERT JUMPDEST POP JUMP JUMPDEST PUSH0 DUP2 CALLDATALOAD SWAP1 POP PUSH2 0x10DC DUP2 PUSH2 0x10B8 JUMP JUMPDEST SWAP3 SWAP2 POP POP JUMP JUMPDEST PUSH0 PUSH1 0x20 DUP3 DUP5 SUB SLT ISZERO PUSH2 0x10F7 JUMPI PUSH2 0x10F6 PUSH2 0xB52 JUMP JUMPDEST JUMPDEST PUSH0 PUSH2 0x1104 DUP5 DUP3 DUP6 ADD PUSH2 0x10CE JUMP JUMPDEST SWAP2 POP POP SWAP3 SWAP2 POP POP JUMP JUMPDEST PUSH2 0x1116 DUP2 PUSH2 0xE64 JUMP JUMPDEST DUP3 MSTORE POP POP JUMP JUMPDEST PUSH2 0x1125 DUP2 PUSH2 0xE7C JUMP JUMPDEST DUP3 MSTORE POP POP JUMP JUMPDEST PUSH0 PUSH1 0x60 DUP3 ADD SWAP1 POP DUP2 DUP2 SUB PUSH0 DUP4 ADD MSTORE PUSH2 0x1143 DUP2 DUP7 PUSH2 0xD92 JUMP JUMPDEST SWAP1 POP PUSH2 0x1152 PUSH1 0x20 DUP4 ADD DUP6 PUSH2 0x110D JUMP JUMPDEST PUSH2 0x115F PUSH1 0x40 DUP4 ADD DUP5 PUSH2 0x111C JUMP JUMPDEST SWAP5 SWAP4 POP POP POP POP JUMP JUMPDEST PUSH0 DUP2 SWAP1 POP SWAP3 SWAP2 POP POP JUMP JUMPDEST PUSH0 PUSH2 0x117B DUP3 PUSH2 0xD6A JUMP JUMPDEST PUSH2 0x1185 DUP2 DUP6 PUSH2 0x1167 JUMP JUMPDEST SWAP4 POP PUSH2 0x1195 DUP2 DUP6 PUSH1 0x20 DUP7 ADD PUSH2 0xD84 JUMP JUMPDEST DUP1 DUP5 ADD SWAP2 POP POP SWAP3 SWAP2 POP POP JUMP JUMPDEST PUSH0 PUSH2 0x11AC DUP3 DUP5 PUSH2 0x1171 JUMP JUMPDEST SWAP2 POP DUP2 SWAP1 POP SWAP3 SWAP2 POP POP JUMP JUMPDEST PUSH32 0x4E487B7100000000000000000000000000000000000000000000000000000000 PUSH0 MSTORE PUSH1 0x22 PUSH1 0x4 MSTORE PUSH1 0x24 PUSH0 REVERT JUMPDEST PUSH0 PUSH1 0x2 DUP3 DIV SWAP1 POP PUSH1 0x1 DUP3 AND DUP1 PUSH2 0x11FB JUMPI PUSH1 0x7F DUP3 AND SWAP2 POP JUMPDEST PUSH1 0x20 DUP3 LT DUP2 SUB PUSH2 0x120E JUMPI PUSH2 0x120D PUSH2 0x11B7 JUMP JUMPDEST JUMPDEST POP SWAP2 SWAP1 POP JUMP JUMPDEST PUSH0 DUP2 SWAP1 POP DUP2 PUSH0 MSTORE PUSH1 0x20 PUSH0 KECCAK256 SWAP1 POP SWAP2 SWAP1 POP JUMP JUMPDEST PUSH0 DUP2 SLOAD PUSH2 0x1232 DUP2 PUSH2 0x11E4 JUMP JUMPDEST PUSH2 0x123C DUP2 DUP7 PUSH2 0x1167 JUMP JUMPDEST SWAP5 POP PUSH1 0x1 DUP3 AND PUSH0 DUP2 EQ PUSH2 0x1256 JUMPI PUSH1 0x1 DUP2 EQ PUSH2 0x126B JUMPI PUSH2 0x129D JUMP JUMPDEST PUSH1 0xFF NOT DUP4 AND DUP7 MSTORE DUP2 ISZERO ISZERO DUP3 MUL DUP7 ADD SWAP4 POP PUSH2 0x129D JUMP JUMPDEST PUSH2 0x1274 DUP6 PUSH2 0x1214 JUMP JUMPDEST PUSH0 JUMPDEST DUP4 DUP2 LT ISZERO PUSH2 0x1295 JUMPI DUP2 SLOAD DUP2 DUP10 ADD MSTORE PUSH1 0x1 DUP3 ADD SWAP2 POP PUSH1 0x20 DUP2 ADD SWAP1 POP PUSH2 0x1276 JUMP JUMPDEST DUP4 DUP9 ADD SWAP6 POP POP POP JUMPDEST POP POP POP SWAP3 SWAP2 POP POP JUMP JUMPDEST PUSH0 PUSH2 0x12B1 DUP3 DUP5 PUSH2 0x1226 JUMP JUMPDEST SWAP2 POP DUP2 SWAP1 POP SWAP3 SWAP2 POP POP JUMP JUMPDEST PUSH32 0x557365726E616D6520616C72656164792074616B656E00000000000000000000 PUSH0 DUP3 ADD MSTORE POP JUMP JUMPDEST PUSH0 PUSH2 0x12F0 PUSH1 0x16 DUP4 PUSH2 0xD74 JUMP JUMPDEST SWAP2 POP PUSH2 0x12FB DUP3 PUSH2 0x12BC JUMP JUMPDEST PUSH1 0x20 DUP3 ADD SWAP1 POP SWAP2 SWAP1 POP JUMP JUMPDEST PUSH0 PUSH1 0x20 DUP3 ADD SWAP1 POP DUP2 DUP2 SUB PUSH0 DUP4 ADD MSTORE PUSH2 0x131D DUP2 PUSH2 0x12E4 JUMP JUMPDEST SWAP1 POP SWAP2 SWAP1 POP JUMP JUMPDEST PUSH32 0x5573657220616C72656164792065786973747300000000000000000000000000 PUSH0 DUP3 ADD MSTORE POP JUMP JUMPDEST PUSH0 PUSH2 0x1358 PUSH1 0x13 DUP4 PUSH2 0xD74 JUMP JUMPDEST SWAP2 POP PUSH2 0x1363 DUP3 PUSH2 0x1324 JUMP JUMPDEST PUSH1 0x20 DUP3 ADD SWAP1 POP SWAP2 SWAP1 POP JUMP JUMPDEST PUSH0 PUSH1 0x20 DUP3 ADD SWAP1 POP DUP2 DUP2 SUB PUSH0 DUP4 ADD MSTORE PUSH2 0x1385 DUP2 PUSH2 0x134C JUMP JUMPDEST SWAP1 POP SWAP2 SWAP1 POP JUMP JUMPDEST PUSH32 0x61646D696E000000000000000000000000000000000000000000000000000000 PUSH0 DUP3 ADD MSTORE POP JUMP JUMPDEST PUSH0 PUSH2 0x13C0 PUSH1 0x5 DUP4 PUSH2 0x1167 JUMP JUMPDEST SWAP2 POP PUSH2 0x13CB DUP3 PUSH2 0x138C JUMP JUMPDEST PUSH1 0x5 DUP3 ADD SWAP1 POP SWAP2 SWAP1 POP JUMP JUMPDEST PUSH0 PUSH2 0x13E0 DUP3 PUSH2 0x13B4 JUMP JUMPDEST SWAP2 POP DUP2 SWAP1 POP SWAP2 SWAP1 POP JUMP JUMPDEST PUSH32 0x6167686100000000000000000000000000000000000000000000000000000000 PUSH0 DUP3 ADD MSTORE POP JUMP JUMPDEST PUSH0 PUSH2 0x141E PUSH1 0x4 DUP4 PUSH2 0x1167 JUMP JUMPDEST SWAP2 POP PUSH2 0x1429 DUP3 PUSH2 0x13EA JUMP JUMPDEST PUSH1 0x4 DUP3 ADD SWAP1 POP SWAP2 SWAP1 POP JUMP JUMPDEST PUSH0 PUSH2 0x143E DUP3 PUSH2 0x1412 JUMP JUMPDEST SWAP2 POP DUP2 SWAP1 POP SWAP2 SWAP1 POP JUMP JUMPDEST PUSH0 PUSH1 0x20 PUSH1 0x1F DUP4 ADD DIV SWAP1 POP SWAP2 SWAP1 POP JUMP JUMPDEST PUSH0 DUP3 DUP3 SHL SWAP1 POP SWAP3 SWAP2 POP POP JUMP JUMPDEST PUSH0 PUSH1 0x8 DUP4 MUL PUSH2 0x1492 PUSH32 0xFFFFFFFFFFFFFFFFFFFFFFFFFFFFFFFFFFFFFFFFFFFFFFFFFFFFFFFFFFFFFFFF DUP3 PUSH2 0x1457 JUMP JUMPDEST PUSH2 0x149C DUP7 DUP4 PUSH2 0x1457 JUMP JUMPDEST SWAP6 POP DUP1 NOT DUP5 AND SWAP4 POP DUP1 DUP7 AND DUP5 OR SWAP3 POP POP POP SWAP4 SWAP3 POP POP POP JUMP JUMPDEST PUSH0 DUP2 SWAP1 POP SWAP2 SWAP1 POP JUMP JUMPDEST PUSH0 PUSH2 0x14D7 PUSH2 0x14D2 PUSH2 0x14CD DUP5 PUSH2 0xD0C JUMP JUMPDEST PUSH2 0x14B4 JUMP JUMPDEST PUSH2 0xD0C JUMP JUMPDEST SWAP1 POP SWAP2 SWAP1 POP JUMP JUMPDEST PUSH0 DUP2 SWAP1 POP SWAP2 SWAP1 POP JUMP JUMPDEST PUSH2 0x14F0 DUP4 PUSH2 0x14BD JUMP JUMPDEST PUSH2 0x1504 PUSH2 0x14FC DUP3 PUSH2 0x14DE JUMP JUMPDEST DUP5 DUP5 SLOAD PUSH2 0x1463 JUMP JUMPDEST DUP3 SSTORE POP POP POP POP JUMP JUMPDEST PUSH0 SWAP1 JUMP JUMPDEST PUSH2 0x1518 PUSH2 0x150C JUMP JUMPDEST PUSH2 0x1523 DUP2 DUP5 DUP5 PUSH2 0x14E7 JUMP JUMPDEST POP POP POP JUMP JUMPDEST JUMPDEST DUP2 DUP2 LT ISZERO PUSH2 0x1546 JUMPI PUSH2 0x153B PUSH0 DUP3 PUSH2 0x1510 JUMP JUMPDEST PUSH1 0x1 DUP2 ADD SWAP1 POP PUSH2 0x1529 JUMP JUMPDEST POP POP JUMP JUMPDEST PUSH1 0x1F DUP3 GT ISZERO PUSH2 0x158B JUMPI PUSH2 0x155C DUP2 PUSH2 0x1214 JUMP JUMPDEST PUSH2 0x1565 DUP5 PUSH2 0x1448 JUMP JUMPDEST DUP2 ADD PUSH1 0x20 DUP6 LT ISZERO PUSH2 0x1574 JUMPI DUP2 SWAP1 POP JUMPDEST PUSH2 0x1588 PUSH2 0x1580 DUP6 PUSH2 0x1448 JUMP JUMPDEST DUP4 ADD DUP3 PUSH2 0x1528 JUMP JUMPDEST POP POP JUMPDEST POP POP POP JUMP JUMPDEST PUSH0 DUP3 DUP3 SHR SWAP1 POP SWAP3 SWAP2 POP POP JUMP JUMPDEST PUSH0 PUSH2 0x15AB PUSH0 NOT DUP5 PUSH1 0x8 MUL PUSH2 0x1590 JUMP JUMPDEST NOT DUP1 DUP4 AND SWAP2 POP POP SWAP3 SWAP2 POP POP JUMP JUMPDEST PUSH0 PUSH2 0x15C3 DUP4 DUP4 PUSH2 0x159C JUMP JUMPDEST SWAP2 POP DUP3 PUSH1 0x2 MUL DUP3 OR SWAP1 POP SWAP3 SWAP2 POP POP JUMP JUMPDEST PUSH2 0x15DC DUP3 PUSH2 0xD6A JUMP JUMPDEST PUSH8 0xFFFFFFFFFFFFFFFF DUP2 GT ISZERO PUSH2 0x15F5 JUMPI PUSH2 0x15F4 PUSH2 0xB72 JUMP JUMPDEST JUMPDEST PUSH2 0x15FF DUP3 SLOAD PUSH2 0x11E4 JUMP JUMPDEST PUSH2 0x160A DUP3 DUP3 DUP6 PUSH2 0x154A JUMP JUMPDEST PUSH0 PUSH1 0x20 SWAP1 POP PUSH1 0x1F DUP4 GT PUSH1 0x1 DUP2 EQ PUSH2 0x163B JUMPI PUSH0 DUP5 ISZERO PUSH2 0x1629 JUMPI DUP3 DUP8 ADD MLOAD SWAP1 POP JUMPDEST PUSH2 0x1633 DUP6 DUP3 PUSH2 0x15B8 JUMP JUMPDEST DUP7 SSTORE POP PUSH2 0x169A JUMP JUMPDEST PUSH1 0x1F NOT DUP5 AND PUSH2 0x1649 DUP7 PUSH2 0x1214 JUMP JUMPDEST PUSH0 JUMPDEST DUP3 DUP2 LT ISZERO PUSH2 0x1670 JUMPI DUP5 DUP10 ADD MLOAD DUP3 SSTORE PUSH1 0x1 DUP3 ADD SWAP2 POP PUSH1 0x20 DUP6 ADD SWAP5 POP PUSH1 0x20 DUP2 ADD SWAP1 POP PUSH2 0x164B JUMP JUMPDEST DUP7 DUP4 LT ISZERO PUSH2 0x168D JUMPI DUP5 DUP10 ADD MLOAD PUSH2 0x1689 PUSH1 0x1F DUP10 AND DUP3 PUSH2 0x159C JUMP JUMPDEST DUP4 SSTORE POP JUMPDEST PUSH1 0x1 PUSH1 0x2 DUP9 MUL ADD DUP9 SSTORE POP POP POP JUMPDEST POP POP POP POP POP POP JUMP JUMPDEST PUSH0 PUSH1 0x40 DUP3 ADD SWAP1 POP DUP2 DUP2 SUB PUSH0 DUP4 ADD MSTORE PUSH2 0x16BA DUP2 DUP6 PUSH2 0xD92 JUMP JUMPDEST SWAP1 POP PUSH2 0x16C9 PUSH1 0x20 DUP4 ADD DUP5 PUSH2 0x111C JUMP JUMPDEST SWAP4 SWAP3 POP POP POP JUMP JUMPDEST PUSH32 0x5573657220646F6573206E6F7420657869737400000000000000000000000000 PUSH0 DUP3 ADD MSTORE POP JUMP JUMPDEST PUSH0 PUSH2 0x1704 PUSH1 0x13 DUP4 PUSH2 0xD74 JUMP JUMPDEST SWAP2 POP PUSH2 0x170F DUP3 PUSH2 0x16D0 JUMP JUMPDEST PUSH1 0x20 DUP3 ADD SWAP1 POP SWAP2 SWAP1 POP JUMP JUMPDEST PUSH0 PUSH1 0x20 DUP3 ADD SWAP1 POP DUP2 DUP2 SUB PUSH0 DUP4 ADD MSTORE PUSH2 0x1731 DUP2 PUSH2 0x16F8 JUMP JUMPDEST SWAP1 POP SWAP2 SWAP1 POP JUMP JUMPDEST PUSH0 DUP2 SLOAD PUSH2 0x1744 DUP2 PUSH2 0x11E4 JUMP JUMPDEST PUSH2 0x174E DUP2 DUP7 PUSH2 0xD74 JUMP JUMPDEST SWAP5 POP PUSH1 0x1 DUP3 AND PUSH0 DUP2 EQ PUSH2 0x1768 JUMPI PUSH1 0x1 DUP2 EQ PUSH2 0x177E JUMPI PUSH2 0x17B0 JUMP JUMPDEST PUSH1 0xFF NOT DUP4 AND DUP7 MSTORE DUP2 ISZERO ISZERO PUSH1 0x20 MUL DUP7 ADD SWAP4 POP PUSH2 0x17B0 JUMP JUMPDEST PUSH2 0x1787 DUP6 PUSH2 0x1214 JUMP JUMPDEST PUSH0 JUMPDEST DUP4 DUP2 LT ISZERO PUSH2 0x17A8 JUMPI DUP2 SLOAD DUP2 DUP10 ADD MSTORE PUSH1 0x1 DUP3 ADD SWAP2 POP PUSH1 0x20 DUP2 ADD SWAP1 POP PUSH2 0x1789 JUMP JUMPDEST DUP1 DUP9 ADD SWAP6 POP POP POP JUMPDEST POP POP POP SWAP3 SWAP2 POP POP JUMP JUMPDEST PUSH0 PUSH1 0x60 DUP3 ADD SWAP1 POP DUP2 DUP2 SUB PUSH0 DUP4 ADD MSTORE PUSH2 0x17D1 DUP2 DUP7 PUSH2 0x1738 JUMP JUMPDEST SWAP1 POP DUP2 DUP2 SUB PUSH1 0x20 DUP4 ADD MSTORE PUSH2 0x17E5 DUP2 DUP6 PUSH2 0xD92 JUMP JUMPDEST SWAP1 POP PUSH2 0x17F4 PUSH1 0x40 DUP4 ADD DUP5 PUSH2 0xDCA JUMP JUMPDEST SWAP5 SWAP4 POP POP POP POP JUMP INVALID LOG2 PUSH5 0x6970667358 0x22 SLT KECCAK256 SWAP11 0xD5 0xB2 0xD6 PUSH7 0x9FB2BEFB85F5C6 PUSH31 0xABB1CCF8B893A0CF0A55008786167E5A84EAA364736F6C634300081A003300 "
		},
		"gasEstimates": {
			"creation": {
				"codeDepositCost": "1238800",
				"executionCost": "1286",
				"totalCost": "1240086"
			},
			"external": {
				"addPost(string)": "infinite",
				"addUser(string,string)": "infinite",
				"getPosts()": "infinite",
				"getUserData()": "infinite",
				"posts(uint256)": "infinite",
				"users(address)": "infinite"
			}
		},
		"methodIdentifiers": {
			"addPost(string)": "a6322819",
			"addUser(string,string)": "079eaf34",
			"getPosts()": "41f3004a",
			"getUserData()": "22e8c87d",
			"posts(uint256)": "0b1e7f83",
			"users(address)": "a87430ba"
		}
	},
	"abi": [
		{
			"anonymous": false,
			"inputs": [
				{
					"indexed": false,
					"internalType": "string",
					"name": "username",
					"type": "string"
				},
				{
					"indexed": false,
					"internalType": "string",
					"name": "content",
					"type": "string"
				},
				{
					"indexed": false,
					"internalType": "uint256",
					"name": "timestamp",
					"type": "uint256"
				}
			],
			"name": "PostCreated",
			"type": "event"
		},
		{
			"anonymous": false,
			"inputs": [
				{
					"indexed": false,
					"internalType": "string",
					"name": "username",
					"type": "string"
				},
				{
					"indexed": false,
					"internalType": "bool",
					"name": "isAdmin",
					"type": "bool"
				}
			],
			"name": "UserAdded",
			"type": "event"
		},
		{
			"inputs": [
				{
					"internalType": "string",
					"name": "content",
					"type": "string"
				}
			],
			"name": "addPost",
			"outputs": [],
			"stateMutability": "nonpayable",
			"type": "function"
		},
		{
			"inputs": [
				{
					"internalType": "string",
					"name": "username",
					"type": "string"
				},
				{
					"internalType": "string",
					"name": "password",
					"type": "string"
				}
			],
			"name": "addUser",
			"outputs": [],
			"stateMutability": "nonpayable",
			"type": "function"
		},
		{
			"inputs": [],
			"name": "getPosts",
			"outputs": [
				{
					"components": [
						{
							"internalType": "string",
							"name": "username",
							"type": "string"
						},
						{
							"internalType": "string",
							"name": "content",
							"type": "string"
						},
						{
							"internalType": "uint256",
							"name": "timestamp",
							"type": "uint256"
						}
					],
					"internalType": "struct Voyage.Post[]",
					"name": "",
					"type": "tuple[]"
				}
			],
			"stateMutability": "view",
			"type": "function"
		},
		{
			"inputs": [],
			"name": "getUserData",
			"outputs": [
				{
					"components": [
						{
							"internalType": "string",
							"name": "username",
							"type": "string"
						},
						{
							"internalType": "bytes32",
							"name": "passwordHash",
							"type": "bytes32"
						},
						{
							"internalType": "bool",
							"name": "isAdmin",
							"type": "bool"
						}
					],
					"internalType": "struct Voyage.User",
					"name": "",
					"type": "tuple"
				}
			],
			"stateMutability": "view",
			"type": "function"
		},
		{
			"inputs": [
				{
					"internalType": "uint256",
					"name": "",
					"type": "uint256"
				}
			],
			"name": "posts",
			"outputs": [
				{
					"internalType": "string",
					"name": "username",
					"type": "string"
				},
				{
					"internalType": "string",
					"name": "content",
					"type": "string"
				},
				{
					"internalType": "uint256",
					"name": "timestamp",
					"type": "uint256"
				}
			],
			"stateMutability": "view",
			"type": "function"
		},
		{
			"inputs": [
				{
					"internalType": "address",
					"name": "",
					"type": "address"
				}
			],
			"name": "users",
			"outputs": [
				{
					"internalType": "string",
					"name": "username",
					"type": "string"
				},
				{
					"internalType": "bytes32",
					"name": "passwordHash",
					"type": "bytes32"
				},
				{
					"internalType": "bool",
					"name": "isAdmin",
					"type": "bool"
				}
			],
			"stateMutability": "view",
			"type": "function"
		}
	]
}